{
  "_format": "hh-sol-artifact-1",
  "contractName": "SwapExamples",
  "sourceName": "contracts/swapExamples.sol",
  "abi": [
    {
      "inputs": [],
      "name": "DAI",
      "outputs": [
        {
          "internalType": "address",
          "name": "",
          "type": "address"
        }
      ],
      "stateMutability": "view",
      "type": "function"
    },
    {
      "inputs": [],
      "name": "USDC",
      "outputs": [
        {
          "internalType": "address",
          "name": "",
          "type": "address"
        }
      ],
      "stateMutability": "view",
      "type": "function"
    },
    {
      "inputs": [],
      "name": "WETH9",
      "outputs": [
        {
          "internalType": "address",
          "name": "",
          "type": "address"
        }
      ],
      "stateMutability": "view",
      "type": "function"
    },
    {
      "inputs": [],
      "name": "poolFee",
      "outputs": [
        {
          "internalType": "uint24",
          "name": "",
          "type": "uint24"
        }
      ],
      "stateMutability": "view",
      "type": "function"
    },
    {
      "inputs": [
        {
          "internalType": "uint256",
          "name": "amountIn",
          "type": "uint256"
        }
      ],
      "name": "swapExactInputSingle",
      "outputs": [
        {
          "internalType": "uint256",
          "name": "amountOut",
          "type": "uint256"
        }
      ],
      "stateMutability": "nonpayable",
      "type": "function"
    },
    {
      "inputs": [],
      "name": "swapRouter",
      "outputs": [
        {
          "internalType": "contract ISwapRouter",
          "name": "",
          "type": "address"
        }
      ],
      "stateMutability": "view",
      "type": "function"
    }
  ],
  "bytecode": "0x608060405234801561001057600080fd5b50610a51806100206000396000f3fe608060405234801561001057600080fd5b50600436106100625760003560e01c8063089fe6aa146100675780634aa4a4fc1461008557806373bd43ad146100a357806389a30271146100d3578063c31c9c07146100f1578063e0bab4c41461010f575b600080fd5b61006f61012d565b60405161007c919061095f565b60405180910390f35b61008d610133565b60405161009a919061090d565b60405180910390f35b6100bd60048036038101906100b891906107a1565b61014b565b6040516100ca919061097a565b60405180910390f35b6100db61030e565b6040516100e8919061090d565b60405180910390f35b6100f9610326565b6040516101069190610928565b60405180910390f35b61011761033e565b604051610124919061090d565b60405180910390f35b610bb881565b73c02aaa39b223fe8d0a0e5c4f27ead9083c756cc281565b600061016d73c02aaa39b223fe8d0a0e5c4f27ead9083c756cc2333085610356565b6101a073c02aaa39b223fe8d0a0e5c4f27ead9083c756cc273e592427a0aece92de3edee1f18e0157c0586156484610576565b600060405180610100016040528073c02aaa39b223fe8d0a0e5c4f27ead9083c756cc273ffffffffffffffffffffffffffffffffffffffff168152602001736b175474e89094c44da98b954eedeac495271d0f73ffffffffffffffffffffffffffffffffffffffff168152602001610bb862ffffff1681526020013373ffffffffffffffffffffffffffffffffffffffff16815260200142815260200184815260200160008152602001600073ffffffffffffffffffffffffffffffffffffffff16815250905073e592427a0aece92de3edee1f18e0157c0586156473ffffffffffffffffffffffffffffffffffffffff1663414bf389826040518263ffffffff1660e01b81526004016102b49190610943565b602060405180830381600087803b1580156102ce57600080fd5b505af11580156102e2573d6000803e3d6000fd5b505050506040513d601f19601f8201168201806040525081019061030691906107ca565b915050919050565b73a0b86991c6218b36c1d19d4a2e9eb0ce3606eb4881565b73e592427a0aece92de3edee1f18e0157c0586156481565b736b175474e89094c44da98b954eedeac495271d0f81565b6000808573ffffffffffffffffffffffffffffffffffffffff166323b872dd60e01b868686604051602401808473ffffffffffffffffffffffffffffffffffffffff1681526020018373ffffffffffffffffffffffffffffffffffffffff1681526020018281526020019350505050604051602081830303815290604052907bffffffffffffffffffffffffffffffffffffffffffffffffffffffff19166020820180517bffffffffffffffffffffffffffffffffffffffffffffffffffffffff83818316178352505050506040518082805190602001908083835b602083106104555780518252602082019150602081019050602083039250610432565b6001836020036101000a0380198251168184511680821785525050505050509050019150506000604051808303816000865af19150503d80600081146104b7576040519150601f19603f3d011682016040523d82523d6000602084013e6104bc565b606091505b50915091508180156104fc57506000815114806104fb57508080602001905160208110156104e957600080fd5b81019080805190602001909291905050505b5b61056e576040517f08c379a00000000000000000000000000000000000000000000000000000000081526004018080602001828103825260038152602001807f535446000000000000000000000000000000000000000000000000000000000081525060200191505060405180910390fd5b505050505050565b6000808473ffffffffffffffffffffffffffffffffffffffff1663095ea7b360e01b8585604051602401808373ffffffffffffffffffffffffffffffffffffffff16815260200182815260200192505050604051602081830303815290604052907bffffffffffffffffffffffffffffffffffffffffffffffffffffffff19166020820180517bffffffffffffffffffffffffffffffffffffffffffffffffffffffff83818316178352505050506040518082805190602001908083835b602083106106575780518252602082019150602081019050602083039250610634565b6001836020036101000a0380198251168184511680821785525050505050509050019150506000604051808303816000865af19150503d80600081146106b9576040519150601f19603f3d011682016040523d82523d6000602084013e6106be565b606091505b50915091508180156106fe57506000815114806106fd57508080602001905160208110156106eb57600080fd5b81019080805190602001909291905050505b5b610770576040517f08c379a00000000000000000000000000000000000000000000000000000000081526004018080602001828103825260028152602001807f534100000000000000000000000000000000000000000000000000000000000081525060200191505060405180910390fd5b5050505050565b60008135905061078681610a04565b92915050565b60008151905061079b81610a04565b92915050565b6000602082840312156107b357600080fd5b60006107c184828501610777565b91505092915050565b6000602082840312156107dc57600080fd5b60006107ea8482850161078c565b91505092915050565b6107fc81610995565b82525050565b61080b81610995565b82525050565b61081a816109e0565b82525050565b6101008201600082015161083760008501826107f3565b50602082015161084a60208501826107f3565b50604082015161085d60408501826108d1565b50606082015161087060608501826107f3565b50608082015161088360808501826108ef565b5060a082015161089660a08501826108ef565b5060c08201516108a960c08501826108ef565b5060e08201516108bc60e08501826108c2565b50505050565b6108cb816109a7565b82525050565b6108da816109c7565b82525050565b6108e9816109c7565b82525050565b6108f8816109d6565b82525050565b610907816109d6565b82525050565b60006020820190506109226000830184610802565b92915050565b600060208201905061093d6000830184610811565b92915050565b6000610100820190506109596000830184610820565b92915050565b600060208201905061097460008301846108e0565b92915050565b600060208201905061098f60008301846108fe565b92915050565b60006109a0826109a7565b9050919050565b600073ffffffffffffffffffffffffffffffffffffffff82169050919050565b600062ffffff82169050919050565b6000819050919050565b60006109eb826109f2565b9050919050565b60006109fd826109a7565b9050919050565b610a0d816109d6565b8114610a1857600080fd5b5056fea264697066735822122012d964af25efb8245ab33f4d577db1b8e6e9e6f670c1022981cfd4e31b0c4bcd64736f6c63430007060033",
  "linkReferences": {},
  "deployedLinkReferences": {}
}